:020000040000FA
:1000000000080020D5000000DD000000DF00000037
:1000100000000000000000000000000000000000E0
:10002000000000000000000000000000E1000000EF
:100030000000000000000000E3000000E5000000F8
:10004000E7000000E7000000E7000000E700000014
:10005000E700000000000000E7000000E7000000EB
:10006000E7000000E7000000E7000000E7000000F4
:10007000E7000000E7000000E7000000E7000000E4
:10008000E7000000E7000000E700000000000000BB
:10009000E7000000E7000000E7000000E7000000C4
:1000A000E7000000E7000000000000000000000082
:1000B0000000000000000000000000000000000040
:1000C0000348854600F014F8004800472901000065
:1000D000000800200448804704480047FEE7FEE788
:1000E000FEE7FEE7FEE7FEE715010000C1000000A5
:1000F000064C0125064E05E02046E36807C82B4361
:1001000098471034B442F7D3FFF7DEFF980200009F
:10011000980200000348406A0321084301494862ED
:10012000704700000005004008B501200B230A229B
:1001300009210090082000F039F800BF0BA000F062
:100140009BF800BF11E000F077F80446204600F06D
:1001500083F8712C01D0512C06D100BF06A000F00D
:100160008BF800BF00BFFEE700BFECE7200A0D538D
:10017000746172743A200000200A0D457869742178
:100180000A0D000010B58A0005231B07072424026E
:100190001B1984001A5110BD0121052212070723E3
:1001A0001B02D2188300D15070470000F8B50746F3
:1001B0000C4615461E461A48406804210843184953
:1001C000486000BF1748406804210842FAD0204622
:1001D000FFF7E2FF00213046FFF7D4FF1248C4606A
:1001E0004661069800280DD03846FFF7D5FF00215C
:1001F0002846FFF7C7FF0C480561876001200A49C0
:100200004031C8620948084948620420086001205A
:10021000074988600860002006498860F8BD000032
:1002200000050040000400400025004000509D00F3
:10023000002000400021004000BF054880680128E0
:10024000FBD100200249886002488069C0B2704733
:1002500000210040002500400549C86100BF054954
:10026000C9690129FBD10021024AD1617047000010
:10027000002500400021004030B5034600252846F7
:100280006D1C1C5C05E02046FFF7E6FF28466D1C50
:080290001C5C002CF7D130BD0D
:04000005000000C136
:00000001FF
