:020000040000FA
:1000000008080020F5000000FD000000FF000000CF
:1000100000000000000000000000000000000000E0
:1000200000000000000000000000000001010000CE
:1000300000000000000000000301000005010000B6
:100040000701000007010000070100000701000090
:100050000701000000000000070100000701000088
:100060000701000007010000070100000701000070
:100070000701000007010000070100000701000060
:100080000701000007010000070100000000000058
:100090000701000007010000070100000701000040
:1000A0000701000007010000000000000000000040
:1000B0000000000000000000000000000000000040
:1000C0000348854600F024F800480047FD01000081
:1000D00008080020401E00BF00BF00BF00BF00BFD7
:1000E00000BF00BF00BF00BF00BF00BF00BFF1D115
:1000F000704700000448804704480047FEE7FEE7D9
:10010000FEE7FEE7FEE7FEE735010000C100000064
:10011000064C0125064E05E02046E36807C82B4340
:1001200098471034B442F7D3FFF7CEFF54030000D2
:10013000640300000348406A032108430149486200
:10014000704700000005004002E008C8121F08C107
:10015000002AFAD170477047002001E001C1121F48
:10016000002AFBD17047000070B500201E490860CE
:1001700001208107086000BF1B4800680028FBD0F1
:100180001A4840680121C90708431849486000BF60
:1001900017484068C00FC0070121C9078842F7D13E
:1001A00012484068022108431049486000BF1048C7
:1001B0004068022108400228F9D100F085F80D4876
:1001C0000D49486010201121032208E09300052406
:1001D000240707252D02641985006351401C8842BD
:1001E000F4D900BF70BD00000001004000050040D0
:1001F00000040040000000200015004008B5FFF793
:10020000B3FF102000F056F8C7B2112000F052F8EA
:10021000C0B200903BE00026102000F04BF8C4B2C2
:10022000112000F047F8C5B2012F03D1002C01D1F5
:10023000012006430098012803D1002D01D102209E
:1002400006432746009512480670002011490860B1
:1002500001201149086000BF0E4800680028FBD04B
:1002600001200D49886000200A49C86000BF094884
:10027000C0680028FBD0002006490861012006491B
:10028000086100BF034800690028FBD000BFC2E737
:1002900000000020001100400010004010B504468E
:1002A00003E0641E0248FFF715FF002CF9D110BDD2
:1002B000E7030000014603480069C840C007C00FBB
:1002C000704700000005005010B500201949C860B3
:1002D0000720886001200861174848621748886233
:1002E0001748C861174808620020C86201200863E7
:1002F0000020486114488861022048630846406B2A
:100300008007800F022804D11048C8631048886312
:100310000BE00848406B8007800F012805D1FF20C3
:100320000449C863FF20083088630320FFF7B6FF45
:1003300010BD000000150040E7C2C3C4C8C7C6C551
:10034000E7E7E7E7C2C2C20001010401FFFF0000C6
:1003500021100100640300000000002004000000E0
:0803600048010000000000004C
:04000005000000C136
:00000001FF
