:020000040000FA
:1000000010080020F5000000FD000000FF000000C7
:1000100000000000000000000000000000000000E0
:1000200000000000000000000000000001010000CE
:1000300000000000000000000301000005010000B6
:100040000701000007010000070100000701000090
:100050000701000000000000070100000701000088
:100060000701000007010000070100000701000070
:100070000701000007010000070100000701000060
:100080000701000007010000070100000000000058
:100090000701000007010000070100000701000040
:1000A0000701000007010000000000000000000040
:1000B0000000000000000000000000000000000040
:1000C0000348854600F024F800480047A9010000D5
:1000D00010080020401E00BF00BF00BF00BF00BFCF
:1000E00000BF00BF00BF00BF00BF00BF00BFF1D115
:1000F000704700000448804704480047FEE7FEE7D9
:10010000FEE7FEE7FEE7FEE735010000C100000064
:10011000064C0125064E05E02046E36807C82B4340
:1001200098471034B442F7D3FFF7CEFF84030000A2
:10013000940300000348406A0321084301494862D0
:10014000704700000005004002E008C8121F08C107
:10015000002AFAD170477047002001E001C1121F48
:10016000002AFBD17047000010B500200D4908603F
:1001700001208107086000BF0A4800680028FBD002
:100180001220132108E0012205231B070724240263
:100190001B1984001A51401C8842F4D900BF00F09A
:1001A000ABF810BD00010040FFF7DEFF75E03B48F3
:1001B0003B4948603B4800783849087000203A497C
:1001C000086001203949086000BF374800680028EE
:1001D000FBD001203549886000203349C86000BF4A
:1001E0003148C0680028FBD000202F490861012059
:1001F0002E49086100BF2C4800690028FBD02C481C
:1002000027494860002028490860012027494860A4
:1002100000BF254800680028FBD000202249C860A4
:1002200001202249886016E022480068401C2149CC
:10023000086008460068204988420CD3FF201C490A
:10024000087000201B490860122000F045F81320B8
:1002500000F042F803E01448C0680028E4D000BF72
:100260001648006801280DD111480078002803D0F5
:100270000F480078012805D1122000F035F813202E
:1002800000F032F8002008490861012007490861A0
:1002900000BF054800690028FBD088E7090000205E
:1002A0000015004004000020001100400010004034
:1002B00005000020000000207C86020000140040A1
:1002C00010B5044603E0641E0248FFF703FF002C4C
:1002D000F9D110BDE703000001218140014AD1603E
:1002E000704700000005005001218140014A9160E3
:1002F000704700000005005010B504201949C8607F
:1003000061208860022008611748486217488862A7
:100310001748C861174808620020C86201200863B6
:100320000020486114488861022048630846406BF9
:100330008007800F022804D11048C86310488863E2
:100340000BE00848406B8007800F012805D1FF2093
:100350000449C863FF20083088630320FFF7B0FF1B
:1003600010BD000000150040E7C2C3C4C8C7C6C521
:10037000E7E7E7E7C2C2C20001010401FFFF000096
:100380002110010094030000000000201000000074
:100390004801000000000000000000000000000014
:0403A0000000000059
:04000005000000C136
:00000001FF
