:020000040002F8
:1000000000280020F5000200FD000200FF000200B1
:1000100000000000000000000000000000000000E0
:1000200000000000000000000000000001010200CC
:1000300000000000000000000301020005010200B2
:100040000701020007010200070102000701020088
:100050000701020000000000070102000701020082
:100060000701020007010200070102000701020068
:100070000701020007010200070102000701020058
:100080000701020007010200070102000000000052
:100090000701020007010200070102000701020038
:1000A000070102000701020000000000000000003C
:1000B0000000000000000000000000000000000040
:1000C0000348854600F024F8004800474901020033
:1000D00000280020401E00BF00BF00BF00BF00BFBF
:1000E00000BF00BF00BF00BF00BF00BF00BFF1D115
:1000F000704700000448804704480047FEE7FEE7D9
:10010000FEE7FEE7FEE7FEE735010200C100020060
:10011000064C0125064E05E02046E36807C82B4340
:1001200098471034B442F7D3FFF7CEFFA80102007E
:10013000A80102000348406A0321084301494862BC
:10014000704700000005004000241220132108E041
:10015000012205231B0707252D025B1985005A5133
:10016000401C8842F4D900BF0EE00221A21C0123EA
:100170009340D8B2054A505400BF00BF601CC4076A
:10018000E40F0A2000F004F8EFE700000405005037
:1001900010B5044603E0641E0248FFF79BFF002CE5
:0801A000F9D110BDE7030000D6
:04000005000200C134
:00000001FF
