:020000040002F8
:1000000080320020A1010200A9010200AB01020020
:1000100000000000000000000000000000000000E0
:10002000000000000000000000000000AD01020020
:100030000000000000000000AF010200B10102005A
:10004000B3010200B3010200B3010200B3010200D8
:10005000B301020000000000190B02002D0A02008B
:10006000B3010200B3010200B3010200B3010200B8
:10007000B3010200B3010200B3010200B3010200A8
:10008000B301020027230200B301020000000000B8
:10009000B3010200B30102005B250200B3010200BC
:1000A000B3010200B30102000000000000000000E4
:1000B0000000000000000000000000000000000040
:1000C00000F002F800F040F80CA030C808382418FE
:1000D0002D18A246671EAB4654465D46AC4201D180
:1000E00000F032F87E460F3E0FCCB6460126334272
:1000F00000D0FB1AA246AB4633431847202A000023
:10010000402A0000103A02D378C878C1FAD85207C2
:1001100001D330C830C101D504680C6070470000BD
:100120000023002400250026103A01D378C1FBD813
:10013000520700D330C100D50B6070471FB5C046D1
:10014000C0461FBD10B510BD02F090FC1146FFF770
:10015000F5FF00F035FD02F0A8FC03B4FFF7F2FF55
:1001600003BC02F0ADFC000070B505460C46164617
:1001700002E00FCC0FC5103E102EFAD2082E02D38B
:1001800003CC03C5083E042E07D301CC01C5361F9E
:1001900003E021782970641C6D1C761EF9D270BDB5
:1001A0000748804707480047FEE7FEE7FEE7FEE70F
:1001B000FEE7FEE704480549054A064B7047000084
:1001C000D9010200C10002008022002080320020FC
:1001D000802A0020802A00200548406A0321084325
:1001E00003494862704703480349086070470000AC
:1001F000000500400024F4000020002004460D46C5
:100200002946FE4802F08EFAFD480480008800BFAF
:10021000FEE770B505462946FA4801F03DF8044668
:10022000002C0BD0082C09D0F748844206D0F748A0
:10023000844203D0F6A19C20FFF7E0FF70BD0020B0
:10024000F64908600120F6490860704710B5044679
:10025000002C03D0EEA1B320FFF7D0FFFFF7EFFF94
:1002600010BD70B50546012D03D0E9A1C320FFF7ED
:10027000C5FFEC480188EC4801F0E9F90446002C80
:100280000BD0082C09D0E048844206D0DF488442D5
:1002900003D0DFA1D020FFF7B1FF70BD38B58020BB
:1002A00031DF0446002C03D0D9A1E220FFF7A6FFDE
:1002B00000BF684634DF0446002C03D0D4A1EB20F5
:1002C000FFF79CFF802100980842F2D00120D74917
:1002D00048601820D64948600020D04908600120B5
:1002E000D3490860072027DF0446002C03D0C8A1AB
:1002F000FD20FFF783FF0321072028DF0446002CA1
:1003000004D0C3A1FF200430FFF778FF072023DFCC
:100310000446002C04D0BEA1FF200A30FFF76EFF78
:1003200038BD38B50120400231DF0446002C04D02E
:10033000B7A1FF201D30FFF761FF00BF684634DF23
:100340000446002C04D0B2A1FF202630FFF756FF50
:100350000121490200980842F0D00020B5494860C8
:100360008860092008610120B349C860B348B149D9
:10037000403108604000B049152292018918486058
:100380000220AF49086038BD10B5AD49C039AD4A4B
:10039000002044DF0446002C04D09DA1FF205230F1
:1003A000FFF72CFFA649BC39A64A012044DF0446CA
:1003B000002C04D096A1FF205B30FFF71FFF032025
:1003C00042DF0446002C04D091A1FF206330FFF7E8
:1003D00015FF10BD38B5402031DF0446002C04D095
:1003E0008BA1FF207530FFF709FF00BF684634DF9F
:1003F0000446002C04D086A1FF207D30FFF7FEFECE
:10040000402100980842F1D00020C0438E49886006
:10041000C0074860062027DF0446002C04D07CA1DA
:10042000FF208930FFF7EAFE0321062028DF04467B
:10043000002C04D076A1FF208F30FFF7DFFE0620CE
:1004400023DF0446002C04D071A1FF209530FFF774
:10045000D5FE38BD7D4805210907072212028918FB
:1004600008640521090789184864704710B5002001
:1004700001F071FF0446002C04D065A1FF20BE30BE
:10048000FFF7BCFE10BD3EB500BF6846007801090D
:100490000901491C009168460078F021884310301A
:1004A000009000BF6AA1684670DF0446002C04D0AB
:1004B00057A1FF20D330FFF7A1FE68486CDF044648
:1004C000002C04D052A1FF20D930FFF797FE002066
:1004D00001900290FF219131684681804900C180DE
:1004E00000210181FF219131418101A86EDF044685
:1004F000002C04D046A1FF20E630FFF77FFE3EBD72
:1005000010B594B006210491554A07CA01AB07C340
:100510003C2105A802F0F8F9022005900121684667
:100520004176818304A908910321018601A90D91D7
:10053000002105A801F0C4FC0446002C03D034A11E
:100540004848FFF75BFE1421474802F0DDF9002020
:10055000454908704860087228200882B420488203
:1005600014B010BD10B59CB003210191142117A83F
:1005700002F0CAF9002118A8017001A8199000BF63
:1005800018A8007A01090901491C18A80172007A0B
:10059000F0218843103018A9087200BF00BF17A8C7
:1005A000407B0009000117A9487317A8407BF02180
:1005B000884317A9487300BF00BF17A8807B0009B4
:1005C0000001887317A8807BF021884317A98873DE
:1005D00000BF00BF18A8C07A01090901491C18A86A
:1005E000C172C07AF0218843103018A9C87200BFC8
:1005F00000BF17A8007C0009000137E0842000201C
:10060000042000204C2100200230000001340000B2
:100610002E2E5C6D61696E2E63000000007100403B
:10062000007000400E200020642100200073004074
:10063000007500400095004000900040841E0000BE
:100640000092004000600040006300400C00030086
:100650004852535F4556414C0000000041030000E2
:10066000002B0200090200003821002017A908749D
:1006700017A8007CF021884317A9087400BFFB4825
:1006800000F0AFFF0446002C03D0F949F948FFF70A
:10069000B5FD142112A802F037F900BF10A8407D63
:1006A00001090901491C10A84175407DF0218843CA
:1006B000103010A9487500BF00BF12A8807B000948
:1006C0000001401C12A9887312A8807BF021884386
:1006D000103012A9887300BF00BF12A8C07B0009A8
:1006E0000001C87312A8C07BF021884312A9C87307
:1006F00000BF00BF10A8007E01090901491C10A815
:100700000176007EF0218843103010A9087600BFE2
:1007100000201290012110A8017300201490642180
:1007200010A8017512A9D44800F095FD0446002CCC
:1007300004D0CF49CF481530FFF760FD402102A813
:1007400002F0E2F8CDA102A801F014FC00BF10A84D
:10075000007901090901491C10A801710079F021F3
:100760008843103010A9087100BF00BF11A840785D
:100770000009000111A9487011A84078F0218843B0
:1007800011A9487000BF02A800F052FB0446002CDB
:1007900004D0B749B7482330FFF730FD1CB010BD77
:1007A0003C20BB4908800846807840084000401C37
:1007B00088700846807802218843B54988700846C9
:1007C00080781C2188430C30B149887008468078B5
:1007D00020218843AE4988700720C8701020087116
:1007E000704738B5FF2001237D221201A9490090EE
:1007F000002001F01BFE0446002C04D09C499D48BB
:100800004330FFF7FBFCFF2001237D22D200A249E9
:100810000090184601F00AFE0446002C04D09449CA
:1008200094484D30FFF7EAFC38BD10B50023032291
:100830001221184600F0F7F901209849086010BD10
:100840000020974908610120944948601220012145
:100850008140944AD16000BF704710B5924863DF71
:100860000446002C04D0824982487F30FFF7C6FC42
:10087000FFF7DBFF10BD7E497E488C30FFF7BEFCE2
:1008800010B586B01821684602F03EF800200090AE
:10089000864968468180C18003210172734881893D
:1008A0006846418101210173002004908048059031
:1008B000684600F097FF0446002C04D06C496D4850
:1008C000A530FFF79BFC06B010BD10B535DF044620
:1008D000002C04D066496748B130FFF78FFC10BD8B
:1008E00070B5044600262088152830D006DC112873
:1008F0000BD0122814D0142845D114E0182819D090
:100900001A2838D054283ED11AE0FFF799FFA08862
:1009100068490880FFF765FF50206749088033E089
:10092000FFF7D3FF30E05A4A00216248008873DFA6
:10093000064629E03222A11D604801F03BFF23E07A
:10094000002211465B480088ABDF06461CE05B4D89
:10095000AD1D2988E089814206D1002229465548EB
:10096000008875DF064605E00022114651480088E0
:1009700075DF064608E0A079002803D1FFF760FF85
:10098000FFF7A3FF00E000BF00BF002E03D03849EF
:100990004B48FFF733FC70BD70B5044649488442AC
:1009A00001DB642540E04748643884420BDD45495B
:1009B000091B3A2251430846642101F0B1FF64212A
:1009C000081AC5B230E0404884420CDD3D49643924
:1009D000091B182251430846A02101F0A1FF2A213A
:1009E000081AC5B220E0394884420CDD3649091B9B
:1009F0000C2251430846FF212D3101F091FF1221B5
:100A0000081AC5B210E0324884420CDD2F49091B98
:100A1000062251430846FF21553101F081FF06218E
:100A2000081AC5B200E00025284670BD70B52948F7
:100A30000068002819D000202649086026488068F0
:100A4000C4B24B21090161430846FF2101F068FF50
:100A500041004018FF300F3085B22846FFF79CFF59
:100A600006463046FFF7D5FB00BF70BD642100206D
:100A700010060200360200004C2100204E6F726406
:100A8000696353656D69636F6E647563746F72003B
:100A9000082000204D020200630202000090004086
:100AA0000065004000050050382100208813000038
:100AB00077080200062000200E20002004210020DC
:100AC00036030000B80B0000B40A000088090000DB
:100AD00034080000007100400075004010B5044665
:100AE0002146664800F04DFC2146654800F0C9FAF1
:100AF000204600F016FF2046FFF7F2FE10BD10B5AD
:100B00006049082001F019FD0446002C03D05E491D
:100B10005E48FFF773FB10BD10B55D48C06B002841
:100B200027D05C484068C00FC00722D00020584939
:100B3000C863102000F070F800280AD156480088D9
:100B4000801C5549088008460088642801DD3C2047
:100B50000880112000F060F800280AD14E48008873
:100B6000801E4D490880084600883C2801DA642030
:100B7000088010BD0021C943484AD161002009E026
:100B800002210522120707231B02D2188300D1502D
:100B9000411CC8B22028F3DB704710B53DDF044686
:100BA000002C04D0384939484130FFF727FB10BDED
:100BB00010B5FFF70FFCFFF7E7FBFFF7B2FB10BD27
:100BC0000124FFF7D7FFFFF745FC102000F024F8C1
:100BD000002805D0112000F01FF8002800D00024C4
:100BE000FFF78DFF002C01D1FFF76FFEFFF73EFCF2
:100BF000FFF749FCFFF784FCFFF7B4FCFFF740FE6A
:100C0000FFF7D6FFFFF74AFBFFF7CAFDFFF725FE08
:100C100000BFFFF7C2FFFCE7014620480069C8405B
:100C2000C007C00F704770B5002B07D11C4C1D4D7D
:100C300051263601AD198600AC5106E01A4C194D0B
:100C400051263601AD198600AC5100BF00BF00BF70
:100C500001248500134EAD192C600C0203252C4392
:100C600015042C431D052C43354651263601AD197C
:100C70008600AC5100BF00BF00BF70BD64210020E2
:100C80004C210020DD0A020010060200A103000032
:100C900040610040006300400E200020000500502D
:100CA000031F020000600040031F010070B50446EE
:100CB0000D46002D03D1C2A12B20FFF79FFA002C77
:100CC00003D1BFA12C20FFF799FA2878207029883A
:100CD0002879FF231B02194000200206080A10434E
:100CE000607028791A022968114000200204080C5B
:100CF0001043A07029791A042868104000210902C5
:100D0000000E0843E07028792071287A6071110C78
:100D1000A8680840000AA0710902A8680840000CF1
:100D2000E07170BD70B505460E460024002E03D15B
:100D3000A3A13E20FFF762FA002D03D1A0A13F201E
:100D4000FFF75CFA32782046611CCCB22A5429198C
:100D5000708800F02EF90019C4B22919B08800F08B
:100D600028F90019C4B22919F08800F022F90019F5
:100D7000C4B2072C03D092A14720FFF73FFA70BD01
:100D8000F0B58FB007460D4614461E46002D03D120
:100D90008BA15620FFF732FA002C03DC88A15720E4
:100DA000FFF72CFA1C2107A801F0AEFD6946087F69
:100DB00002218843801C69460877002008900A9029
:100DC0000B900C900D9000BF012108A88176684619
:100DD000078700BF00200190317868460171717863
:100DE000417180794108490068468171807902210A
:100DF0008843014668468171807904218843014611
:100E000068468171142102A801F07EFD0EA80290AF
:100E100001A80390684604820021418284820695DD
:100E200002AA07A973480088149BA3DF0FB0F0BD86
:100E30007FB5044600BF0121684681736E498181F8
:100E400000BF6C4A03A90120A1DF0546002D02D096
:100E5000284604B070BD208800280DDD674800904A
:100E6000228823463C3366486168FFF789FF0546C0
:100E7000002D01D02846ECE7208900280EDD6148CE
:100E80000090228923463C335D48401FE168FFF70C
:100E900077FF0546002D01D02846DAE7208A002892
:100EA0000EDD59480090228A23463C335448001FE7
:100EB0006169FFF765FF0546002D01D02846C8E7A8
:100EC000208B00280EDD51480090228B23463C33B6
:100ED0004B48801EE169FFF753FF0546002D01D006
:100EE0002846B6E7208C00280EDD49480090228C69
:100EF00023463C334248C01E616AFFF741FF054666
:100F0000002D01D02846A4E7208D00280EDD4148A1
:100F10000090228D23463C333948401EE16AFFF79A
:100F20002FFF0546002D01D0284692E7206B0028B0
:100F300013D001A8216BFFF7B9FE374823463C3395
:100F4000082201A900902E48801FFFF719FF0546CF
:100F5000002D01D028467CE700BF606B00280FD031
:100F60002E480090606B027923463C330168244888
:100F7000401CFFF705FF0546002D01D0284668E715
:100F8000A06B002813D001A8A16BFFF7CBFE24486B
:100F900023463C33072201A9009019482730FFF768
:100FA000EFFE0546002D01D0284652E700BF002085
:100FB0004FE702460A70100A48700220704700008E
:100FC0002E2E5C2E2E5C2E2E5C2E2E5C2E2E5C5336
:100FD0006F757263655C626C655C626C655F73659E
:100FE0007276696365735C626C655F6469732E63B6
:100FF00000000000102000200A180000122000202D
:10100000292A00001A200020222000202A20002067
:10101000322000203A200020422000204A200020D8
:10102000522000208A88428270470022D2434282A6
:101030007047F8B504460E46207D002820D0B51D27
:101040002988608981421AD1288B022817D120680B
:10105000002814D000BF00BFE97EAA7E0902114318
:101060000846C107C90F002902D00020009001E006
:1010700001200090694620462268904700BF00BFCB
:10108000F8BD70B505460C462088112804D01228FA
:1010900007D051280FD109E021462846FFF7C2FFAB
:1010A0000AE021462846FFF7C0FF05E02146284612
:1010B000FFF7BFFF00E000BF00BF70BDF0B591B00B
:1010C00004460D46207D002812D00020099000BF64
:1010D00008A8007901090901491C08A801710079D3
:1010E000F0218843103008A9087100BF687B48715F
:1010F0001C210AA801F008FC08A8007A02218843F4
:10110000811C08A80172007A10218843217D0029E2
:1011100001D0012100E00021090110221140084303
:1011200008A9087200200B900D900E90207D0028D9
:1011300001D009A800E000200F900020109000BF0F
:101140000121684681737149818100BF00200290AE
:10115000A97B68460172E97B4172807A41084900A7
:1011600068468172807A022188430146684681720E
:10117000807A04218843014668468172297B019167
:10118000142104A801F0C0FB03A8049002A8059054
:10119000012168460183002141830121818301A847
:1011A0000890A088A31D04AA0AA9A3DF0646002E62
:1011B00002D0304611B0F0BDA868002847D000BF6B
:1011C0000121684681735249818100BF002002904D
:1011D000287C6946087200BF6846407A0109090107
:1011E00068464172407AF02188436946487200BFE0
:1011F0006846807A4108490068468172807A0221F7
:101200008843014668468172807A042188430146FA
:1012100068468172A96800F099FE0746142104A867
:1012200001F072FB03A8049002A8059068460783AA
:1012300000214183018B81830890E08822460E3291
:1012400004A9A4DF0646002E03D03046B2E70020F2
:10125000E0810020AEE7F8B504460D46286820601E
:101260000020C043608228792075FF20207400BFD1
:101270000121684681702749018000BF221D69460F
:101280000120A1DF0646002E01D03046F8BD2946D8
:101290002046FFF713FFF9E733B585B00446002574
:1012A000207C6946097E88422DD001210491684640
:1012B000007E2074E08806AB04AA0021A7DF054663
:1012C000002D02D0284607B030BD608A12498842FE
:1012D00018D0207D002815D00020009001900290A9
:1012E000039001210491E18868460180002181700A
:1012F000818004A8029006A80390608A6946A9DF4D
:10130000054600BF00BF2846DDE70000192A00009F
:10131000082900000F180000FFFF00008A880284DF
:1013200070470022D2430284704738B504460D4608
:10133000288B022817D12068002814D000BF00BFD6
:10134000E97EAA7E090211430846C107C90F002998
:1013500002D00020009001E0012000906946204664
:101360002268904700BF38BD70B504460D46AE1DDB
:101370003188A089814203D131462046FFF7D5FF4D
:1013800070BD70B505460C462088112804D012287F
:1013900007D051280FD109E021462846FFF7BEFFAC
:1013A0000AE021462846FFF7BCFF05E02146284613
:1013B000FFF7DAFF00E000BF00BF70BDF7B582B0F5
:1013C000044617460020019001256079002803D0CB
:1013D00004210198084301902220005D002803D0D9
:1013E00002210198084301900398FF280ADD01219A
:1013F0000198084301907919039800F096F9401973
:10140000C5B205E00398C2B22846691CCDB23A5471
:101410004C20005B002803DD102101980843019057
:10142000002618E0A81C14280BD94C20005B801B58
:101430004200700023462433C118184601F01EFAFA
:101440000DE07919720023462433985A00F06DF9A3
:101450004019C5B2761C4C20005BB042E2DC00BFF4
:101460004C20005B801B81B24C20015301983870E6
:10147000284605B0F0BD30B595B005460C460020B5
:101480000D9000BF08A8007D01090901491C08A8AA
:101490000175007DF0218843103008A9087500BF50
:1014A000217B08A841751C210EA801F02DFA08A87F
:1014B000007E10218843103008A9087600200F9084
:1014C000119012900DA813900020149000BF0121DC
:1014D000684681779849818300BF00200690617B30
:1014E00068460176A17B4176807E410849006846C6
:1014F0008176807E02218843014668468176807E1F
:1015000004218843011D68468176142108A801F052
:10151000FBF907A8089006A8099001AA002128460F
:10152000FFF74CFF014668460185002141851421E3
:10153000818501A80C90E8882B46083308AA0EA9DB
:10154000A3DF15B030BD30B58FB005460C461C2169
:1015500008A801F0D9F908A9087802218843801C5D
:1015600008A90870002009900B900C900D900E9027
:1015700000BF0121684681726F49491C018100BF8B
:1015800000200190E17B68460171217C41718079E6
:1015900041084900684681718079022188430146EB
:1015A00068468171807904218843014668468171CB
:1015B000142103A801F0A8F902A8039001A804903F
:1015C0000121684681820021C18201210183A06836
:1015D0000790E8882B46103303AA08A9A3DF0FB0B1
:1015E00030BDF8B504460E46306820603079607131
:1015F0000020C04320840021222001554C200153AB
:1016000000BF0121684681704C49018000BFA21DC6
:1016100069460120A1DF0546002D01D02846F8BD0E
:1016200031462046FFF727FF0546002D01D028460A
:10163000F5E7B068002808D031462046FFF783FF61
:101640000546002D01D02846E9E70020E7E7F0B580
:101650008BB004460F46208C3949884221D006AA17
:1016600039462046FFF7AAFE06460596002001905F
:101670000290039004902189684681800021817145
:10168000018105A8039006A80490208C01A9A9DF78
:101690000546002D04D16846808AB04200D00C2552
:1016A00000E0082528460BB0F0BD70B504460D4695
:1016B0004C20005B14280AD12622A118881E01F0B4
:1016C000DDF84C20005B401E81B24C2001534C20C1
:1016D000015B005B401C82B24C2002534900204653
:1016E0002430455270BD01464C20405A142801D187
:1016F000012070470020FCE70246108C104B9842F6
:1017000002D15171002070470820FCE722221154B9
:10171000704713B582B0044601200190208A03ABC4
:1017200001AA0021A7DF04B010BD02460A70100A0A
:101730004870022070470000372A00000D18000092
:10174000FFFF000001464888854A1288904206DB68
:101750004888834A5288904201DC0120704700206B
:10176000FCE738B505467F480078401C7D49087085
:101770007D48007A0978884214DB7C48FFF7E2FF55
:1017800000282ED176497A48008869DF0446002C6B
:1017900007D075484069002803D073484169204646
:1017A00088471EE07048007B00280FD03B2170481E
:1017B00000886ADF0446002C07D06B484069002887
:1017C00003D0694841692046884700BF66480069E0
:1017D000002806D0002000906348016968468847C9
:1017E00000BF38BD70B50546182229465E48FEF791
:1017F000BBFC286800280BD008225948296800F053
:10180000D9FF57486EDF0446002C08D0204670BD33
:1018100053486FDF0446002C01D02046F7E7002034
:10182000C0435349088000204E49087000BFEEE7CE
:1018300010B5022000F0BAFD10BD38B54B48FFF7D7
:1018400081FF002823D14748007800280AD1FF20D3
:1018500000904548828800234649022000F0E6FDBA
:10186000044609E0FF2000903F48C2880023414918
:10187000022000F0DBFD0446002C07D03A48406906
:10188000002803D0384841692046884700BF38BD4A
:1018900010B50446A08836490880082221460E313A
:1018A000324800F087FF00202E4908702E484089FA
:1018B000002801D1FFF7C1FF10BD10B5044600207C
:1018C000C0432B490880002026490870022000F000
:1018D0006DFD10BD70B50546AC1D208822494989B3
:1018E000884213D1208B022810D100BF00BFE17EB7
:1018F000A27E090211430846C107C90F002902D080
:10190000FFF79BFF02E0022000F050FD70BD10B514
:1019100004460822A11D154800F04CFFFFF78DFF7B
:1019200010BD10B504462088112806D0122808D012
:1019300013280ED0512810D107E02046FFF7A8FF4A
:101940000CE02046FFF7B9FF08E02046FFF7C2FF92
:1019500004E02046FFF7DBFF00E000BF00BF10BD42
:101960005A20002062200020B421002066200020A0
:101970006420002063170200FEB505460E4614469B
:101980002078801C1F21081AC0B200902178891C81
:101990008819694671DF01900198002801D00198EB
:1019A000FEBD2879002808D0287969460978884240
:1019B00003DA28790090082700E0092768460078B4
:1019C000401CC1B22278501C2070B1542178481CB0
:1019D000207077542178684600780818207000201D
:1019E000DEE7F8B505460C462078001D1F2801DD0E
:1019F0000C20F8BD68466DDF0646002E01D030464B
:101A0000F7E703212278501C2070A954192122786D
:101A1000501C2070A954207841196846008800F0B5
:101A20008CFA2178401820700020E2E7F8B50546CE
:101A30000F4616461C466868002801D10720F8BDED
:101A40002078801C298840181F2801DD0C20F6E72B
:101A50002878401CC1B22278501C2070B1542178E3
:101A6000481C207077542A8823789819696800F0F8
:101A7000A1FE20782978401820700020DFE730B5DB
:101A800003461078C01C1F2801DD0C2030BD022445
:101A90001578681C10704C550A241578681C107055
:101AA0004C551578681C10704B550020EEE7FFB5BB
:101AB00087B006461D46109C0020069020780590B1
:101AC000002749E0B900706841180A886846028119
:101AD00049884181002203A902A800F0BAFA0490C3
:101AE0000498002802D004980BB0F0BD6846017B32
:101AF000099881422FD10698002801D0002000E0EB
:101B00000220019020786946097B41180198081845
:101B10001F2801DD0C20E7E70698002809D120786E
:101B2000401C20702278511C08982170A854012074
:101B300006902078421903A902A800F08AFA0490BE
:101B40000498002801D00498CEE720786946097BE4
:101B50004018207000BF7F1C3088B842B2DC069865
:101B6000002806D021780598401C081AC1B20598B3
:101B700029540020B8E7FFB581B0074615460A9EF4
:101B8000009602223846049B0299FFF790FF044614
:101B9000002C02D0204605B0F0BD00961022294648
:101BA0003846049BFFF783FF0446002C01D02046F3
:101BB000F1E70020EFE701460888062808DB0888DF
:101BC0001922D201904205DD0888DF4A904201D0F7
:101BD000072070474888062808DB48881922D20168
:101BE000904205DD4888D84A904201D00720F0E7AE
:101BF0000888D54A904208D04888904205D0088885
:101C00004A88904201DD0720E3E70020E1E7F8B5CC
:101C100006460D4614462078801D1F2801D90C2049
:101C2000F8BD3046FFF7C7FF0746002F01D0384602
:101C3000F6E705212278501C2070A9541221227841
:101C4000501C2070A95422785119308800F075F981
:101C500021784018207022785119708800F06DF9B1
:101C60002178401820700020DAE7F8B505460E46C6
:101C700014462879801CC7B22078801CC0191F2800
:101C800001DD0C20F8BD781CC1B22278501C2070F8
:101C9000B154FF212278501C2070B1542278911940
:101CA000288800F04AF9217840182070A888002878
:101CB0000EDDA868002801D10720E3E7AA88237871
:101CC0009819A96800F076FD2078297940182070CD
:101CD0000020D7E7FEB507460E461446786B00286D
:101CE00001D10720FEBD0020019032E0796B0C226B
:101CF000019850430D182879801CC0B200900098BC
:101D0000401CC1B22278501C2070B1541621227898
:101D1000501C2070B15422789119288800F00DF9D8
:101D2000217840182070A88800280EDDA8680028B7
:101D300001D10720D6E7AA8823789819A96800F06E
:101D400039FD20782979401820700198401CC0B2D4
:101D500001903820C15D01988142C7DC0020C1E7B5
:101D6000F8B504460F46164600250020307020685E
:101D7000002809D0324639462046FFF7FDFD0546CA
:101D8000002D01D02846F8BD6079002808D03146E2
:101D90003846FFF726FE0546002D01D02846F2E71B
:101DA000208900280BDD33463A46012120460830C1
:101DB000FFF73CFE0546002D01D02846E3E72069E9
:101DC00000280BD000202169085632463946FFF71B
:101DD00056FE0546002D01D02846D4E7A08A0028EB
:101DE0000CDD3B4606220221204614300096FFF708
:101DF000C2FE0546002D01D02846C4E7A08B00286E
:101E00000CDD3B460722032120461C300096FFF7DD
:101E1000B2FE0546002D01D02846B4E7A08C00286C
:101E20000CDD3B4615221421204624300096FFF796
:101E3000A2FE0546002D01D02846A4E7E06A00284E
:101E400009D032463946E06AFFF7E1FE0546002D2B
:101E500001D0284697E7206B002809D03246394642
:101E6000206BFFF702FF0546002D01D028468AE7C8
:101E70003820005D002809DD324639462046FFF74C
:101E800029FF0546002D01D028467CE728467AE741
:101E900001460889002807D0C868002804D0C8680F
:101EA00000780422104201D1072070470020FCE78F
:101EB00001460889002801DD072070470020FCE763
:101EC000F3B593B00D46002112911191139800289B
:101ED00014D01398FFF7DCFF0446002C02D02046F4
:101EE00015B0F0BD12AA09A91398FFF739FF0446EF
:101EF000002C01D02046F3E709AE00E00026002DBB
:101F000013D02846FFF7D4FF0446002C01D020460A
:101F1000E6E711AA01A92846FFF722FF0446002C94
:101F200001D02046DCE701AF00E0002710A80379CC
:101F30003A46017A304662DFD2E702460A70100A5A
:101F40004870022070470000FFFF000070B5054692
:101F50000E46002432782146641C6A547278214669
:101F6000641C6A54022C03D007A11C20FEF746F91A
:101F7000204670BD70B504460D46284600F0F8FBBB
:101F80002080656070BD00002E2E5C2E2E5C2E2EF3
:101F90005C2E2E5C2E2E5C536F757263655C626CDA
:101FA000655C626C655F73657276696365735C62BC
:101FB0006C655F7372765F636F6D6D6F6E2E63001D
:101FC000434A1160434B18707047F8B507460D46F9
:101FD00014460020A0702080022F0AD10120A0709A
:101FE000284600F06EF82080208800282FD000209E
:101FF000F8BD102F2BD128460C3000F062F820805D
:10200000344806781DE03001314A126881180C22EC
:10201000284600F05AFB002813D1A87B31012C4A36
:1020200012688918897B88420BD1E87B3101284AE4
:1020300012688918C97B884203D1701CA0700020E7
:10204000D6E73046711ECEB20028DCD100BF0B208F
:10205000CEE770B504460E46154600203070A078D5
:10206000012809D1002D03D02088294600F023F84B
:1020700002203070002070BDA078022819DBA07803
:1020800014490978884214DC002D0ED0A078401E37
:1020900000010F4A126881181022284600F08AFBBE
:1020A000208829460C3100F006F8102030700020FE
:1020B000E1E70720DFE702460A70100A48700220B5
:1020C0007047014648780A780002104370470000C4
:1020D000702000207420002038B50120400431DF3A
:1020E0000446002C01D0204638BD00BF684634DFCE
:1020F0000446002C01D02046F6E70121490400984F
:102100000842F3D02020F5498860F548F349403172
:10211000086001200004F3494860F24940394860F2
:10212000112027DF0446002C01D02046DCE70321E4
:10213000112028DF0446002C01D02046D4E71120CE
:1021400023DF0446002C01D02046CDE70020CBE75A
:10215000E2484068704710B50446E148844203D322
:10216000E1A18620FEF74AF8DC484068A04203D28D
:10217000DA484030046005E0D8484068401CD74940
:102180004031086010BD0120E14988600860704757
:102190000120DF4948608860704710B5DD4800685D
:1021A0008069DC49086008460068002803D0096897
:1021B000C868FFF7D0FF10BD70B505461C216868E0
:1021C0004843D54944182868206068686060A8685A
:1021D000A060E868E06028692061287D2075A86912
:1021E000A061CC48006800280BD1CA4804600020D8
:1021F000C84909688861E068FFF7ADFFFFF7C3FFD2
:1022000022E0C4480668E068F168884207D2C14805
:10221000046000688661E068FFF79DFF13E009E055
:10222000E068B169C968884203D2B069A061B4614D
:1022300003E0B669B0690028F2D100BFB069002898
:1022400001D1B461A06100BF70BDF0B587B0054693
:10225000B0480068002804D1A3A1FF204630FDF754
:10226000CDFFAC48046809E0E068A84203D9E06803
:10227000401BE06001E00020E060A469002CF3D185
:1022800040E0A6480068002810D0A2480668327DC9
:10229000B1687068A14B1B6898470746002F04D0AF
:1022A00091A1FF206630FDF7A9FF05E09948066877
:1022B0007068B168884700BF9648006800680128C8
:1022C0001ED19448006800680090924800684068F9
:1022D000019090480068806802908E48006800690C
:1022E00003908C480068006904908A480068007D6B
:1022F00069460875FFF751FF6846FFF75DFF01E08B
:10230000FFF74BFF83480068002804D0814800682D
:10231000C0680028B5D07F480068002801D1FFF7C9
:1023200037FF07B0F0BD10B57D480068002811D018
:102330006C48403840680121090408420AD0002056
:102340007749086001207249886064494031086813
:10235000FFF77BFF10BD10B5044670480460FFF71F
:10236000BBFE10BDF8B50546002768462BDF0646C4
:10237000002E03D05CA1C420FDF740FF654804682F
:1023800005E06068A84201D1012702E0A469002CA1
:10239000F7D100BF684600782CDF0646002E03D038
:1023A00051A1D120FDF72AFF3846F8BDF8B5054602
:1023B00068462BDF0646002E04D04BA1FF201330C9
:1023C000FDF71CFF53480068002823D051480468DB
:1023D0006068A8420FD1A0694E49086008460068AD
:1023E000002802D1FFF7D4FE13E04A490968C86803
:1023F000FFF7B1FE0DE008E0A0694068A84203D1F4
:10240000A0698069A06103E0A469A0690028F3D1F4
:1024100000BF00BF684600782CDF0646002E04D0BF
:1024200031A1FF203530FDF7E9FEF8BDFFB58BB0D7
:102430000D4616461F460B98FFF7B8FF002E37D003
:1024400030460121C90300F042FB364B0022C01880
:1024500051415A0000230191009000F0B5F802901C
:1024600003970B9804900595FFF772FE02994018A8
:1024700006900298079008A91498087001A82BDF0D
:1024800000900098002803D017A1EF20FDF7B6FEBA
:1024900003A8FFF791FE684600792CDF00900098B2
:1024A000002803D010A1F120FDF7A8FE002412E0BF
:1024B000002F0FD119480068002807D02946174B74
:1024C000149A0B981B689847044604E00B98A84799
:1024D000002400E0072420460FB0F0BD00150140A5
:1024E000FFFFFF00401301402E2E5C2E2E5C2E2E8F
:1024F0005C2E2E5C2E2E5C536F757263655C626C75
:10250000655C6170705F74696D65722E63000000B8
:102510000010014078200020CC2100207C200020E9
:10252000401101407440000070B506460C46154647
:1025300029462046FDF762FE70BD70B506460C4682
:10254000134804601349304610DF0546002D01D0C2
:10255000284670BD162023DFFBE710B59CB000BFF6
:102560006820019001A902A850DF0446052C00D183
:102570000AE0002C03D008A15020FDF73FFE02A87E
:10258000034909688847EBE700BF1CB010BD000095
:1025900080200020292502002E2E5C2E2E5C2E2E5F
:1025A0005C2E2E5C2E2E5C536F757263655C626CC4
:1025B000655C626C655F737461636B5F68616E64B8
:1025C0006C65722E63000000FEB5054610460C4691
:1025D000184373D0AE468C460020AD1A01469C418C
:1025E00067D36646002701243D46B61A9D4102D3B3
:1025F00013463A462124654676462F04360C3E4360
:102600002D0CB61A9D4104D3150C1B042B43120448
:102610001034654676462F06360A3E432D0AB61A12
:102620009D4104D3150E1B022B431202083465464C
:1026300076462F0736093E432D09B61A9D4104D32D
:10264000150F1B012B431201241D65467646AF076B
:10265000B6083E43AD08B61A9D4104D3950F9B00C2
:102660002B439200A41C65467646EF0776083E434E
:102670006D08B61A9D411AD392185B41641C16E08E
:102680000018764665464941B71A9D410191009070
:1026900009D36046B11A98418E4684460098019944
:1026A0000025401C6941DD0752082A435B08641E6F
:1026B000E6D57246634603B0F0BDFFE70020014651
:1026C000C046C0462A462346F5E7034610B50B43ED
:1026D0009B070FD1042A0DD308C810C9121FA342AB
:1026E000F8D018BA21BA884201D9012010BD0020C3
:1026F000C04310BD002A03D0D30703D0521C07E00B
:10270000002010BD03780C78401C491C1B1B07D10E
:1027100003780C78401C491C1B1B01D1921EF1D17F
:10272000184610BD034670B502460B439B070FD1F8
:102730000E4CE60100E008C208C91D1B9D4335424E
:10274000F9D0D9B21170521C00290DD01B0AF8E73C
:102750000B78491C1370521C002B05D00B78491CB8
:102760001370521C002BF3D170BD00000101010158
:1027700030B5441C03E00178401C00290DD08107CE
:10278000F9D10B4BDD0104C8D11A91432940FAD08D
:10279000001B0A0603D0C01E30BD001B30BD0A045A
:1027A00001D0801E30BD0902FCD0401E30BD0000AB
:1027B00001010101F8B5042A2CD3830712D00B784C
:1027C000491C0370401C521E83070BD00B78491C18
:1027D0000370401C521E830704D00B78491C037001
:1027E000401C521E8B079B0F05D0C91ADF00202307
:1027F000DE1B08C90AE0FDF7B7FCF8BD1D4608C995
:10280000FD401C46B4402C4310C0121F042AF5D2D0
:10281000F308C91A521EF0D40B78491C0370401CEF
:10282000521EEAD40B78491C0370401C521EE4D49B
:1028300009780170F8BD431A70B593421BD289180C
:10284000801804E0491E521E0B78401E0370930747
:10285000F8D106E010390B461038103A78CB78C022
:102860001038102AF6D203E0001F091F0B6803601E
:10287000121FF9D570BDFDF777FC70BDF8B506469F
:1028800014460843800707D0751AA54219D20819C3
:10289000102D13D2311907E03046FFF7CCFFF8BDF9
:1028A000401E491E02780A70641EF9D2F8BD471B0B
:1028B0002A463946FFF77EFF641B3846A542F6D309
:1028C000011B22463046FFF775FFF8BD01E004C04A
:1028D000091F0429FBD28B0701D50280801CC90780
:1028E00000D00270704700290BD0C30702D00270DD
:1028F000401C491E022904D3830702D50280801C94
:10290000891EE3E70022EEE70022DFE70022030949
:102910008B422CD3030A8B4211D300239C464EE0FA
:1029200003460B433CD4002243088B4231D30309B6
:102930008B421CD3030A8B4201D394463FE0C30968
:102940008B4201D3CB01C01A524183098B4201D380
:102950008B01C01A524143098B4201D34B01C01A6B
:10296000524103098B4201D30B01C01A5241C308E3
:102970008B4201D3CB00C01A524183088B4201D352
:102980008B00C01A524143088B4201D34B00C01A3E
:102990005241411A00D201465241104670475DE053
:1029A000CA0F00D04942031000D3404253400022D6
:1029B0009C4603098B422DD3030A8B4212D3FC227F
:1029C000890112BA030A8B420CD3890192118B42FE
:1029D00008D3890192118B4204D389013AD0921114
:1029E00000E08909C3098B4201D3CB01C01A5241CF
:1029F00083098B4201D38B01C01A524143098B4298
:102A000001D34B01C01A524103098B4201D30B0180
:102A1000C01A5241C3088B4201D3CB00C01A5241A5
:102A200083088B4201D38B00C01A5241D9D243088C
:102A30008B4201D34B00C01A5241411A00D20146C9
:102A4000634652415B10104601D34042002B00D533
:102A50004942704763465B1000D3404201B50020F5
:102A6000C046C04602BD704770477047754600F0CB
:102A700023F8AE46050069465346C008C0008546A7
:102A800018B020B5FDF796FB60BC00274908B64694
:102A90000026C0C5C0C5C0C5C0C5C0C5C0C5C0C56D
:102AA000C0C5403D49008D4670470446C046C046FB
:102AB0002046FDF752FB000000487047202200200E
:102AC00001491820ABBEFEE7260002007047F8B5AA
:102AD00082B28BB2040C0D0C1046584300212646DE
:102AE0005E43370C36048019794116466E43370C25
:102AF00036048019794126466E438919F8BD0000D5
:102B00000D1801000F1801000A180100FB349B5F2B
:102B10008000008000100000000000003C2B02003C
:102B2000002000208400000004010200C02B0200ED
:102B300084200020FC110000200102000024F40089
:102B40000000FFFF00000000000000000000000087
:102B50000000000000000000000000000000000075
:102B60000000000000000000000000000000000065
:102B70000000000000000000000000000000000055
:102B80000000000000000000000000000000000045
:102B90000000000000000000000000000000000035
:102BA0000000000000000000000000000C2B0200EC
:102BB0000100000000000000000000000000000014
:04000005000200C134
:00000001FF
